{
  "_format": "hh-sol-artifact-1",
  "contractName": "UtilImpl",
  "sourceName": "contracts/UtilImpl.sol",
  "abi": [
    {
      "inputs": [
        {
          "internalType": "address",
          "name": "account",
          "type": "address"
        },
        {
          "internalType": "address",
          "name": "token",
          "type": "address"
        },
        {
          "internalType": "bool",
          "name": "suppressError",
          "type": "bool"
        }
      ],
      "name": "getBalance",
      "outputs": [
        {
          "internalType": "uint256",
          "name": "",
          "type": "uint256"
        }
      ],
      "stateMutability": "view",
      "type": "function"
    },
    {
      "inputs": [
        {
          "internalType": "address",
          "name": "account",
          "type": "address"
        },
        {
          "internalType": "address",
          "name": "token",
          "type": "address"
        }
      ],
      "name": "getBalance",
      "outputs": [
        {
          "internalType": "uint256",
          "name": "",
          "type": "uint256"
        }
      ],
      "stateMutability": "view",
      "type": "function"
    },
    {
      "inputs": [
        {
          "internalType": "address",
          "name": "account",
          "type": "address"
        },
        {
          "internalType": "address[]",
          "name": "tokens",
          "type": "address[]"
        }
      ],
      "name": "getBalances",
      "outputs": [
        {
          "internalType": "uint256[]",
          "name": "",
          "type": "uint256[]"
        }
      ],
      "stateMutability": "view",
      "type": "function"
    },
    {
      "inputs": [
        {
          "internalType": "address[]",
          "name": "accounts",
          "type": "address[]"
        },
        {
          "internalType": "address",
          "name": "token",
          "type": "address"
        }
      ],
      "name": "getBalances",
      "outputs": [
        {
          "internalType": "uint256[]",
          "name": "",
          "type": "uint256[]"
        }
      ],
      "stateMutability": "view",
      "type": "function"
    },
    {
      "inputs": [
        {
          "internalType": "address[]",
          "name": "accounts",
          "type": "address[]"
        },
        {
          "internalType": "address[]",
          "name": "tokens",
          "type": "address[]"
        }
      ],
      "name": "getBalances",
      "outputs": [
        {
          "internalType": "uint256[]",
          "name": "",
          "type": "uint256[]"
        }
      ],
      "stateMutability": "view",
      "type": "function"
    },
    {
      "inputs": [
        {
          "internalType": "address",
          "name": "token",
          "type": "address"
        },
        {
          "internalType": "uint256",
          "name": "tokenId",
          "type": "uint256"
        }
      ],
      "name": "getTokenURI",
      "outputs": [
        {
          "internalType": "string",
          "name": "",
          "type": "string"
        }
      ],
      "stateMutability": "view",
      "type": "function"
    },
    {
      "inputs": [
        {
          "internalType": "address",
          "name": "token",
          "type": "address"
        },
        {
          "internalType": "uint256[]",
          "name": "tokenIds",
          "type": "uint256[]"
        }
      ],
      "name": "getTokenURIs",
      "outputs": [
        {
          "internalType": "string[]",
          "name": "",
          "type": "string[]"
        }
      ],
      "stateMutability": "view",
      "type": "function"
    },
    {
      "inputs": [
        {
          "internalType": "address[]",
          "name": "tokens",
          "type": "address[]"
        },
        {
          "internalType": "uint256[]",
          "name": "tokenIds",
          "type": "uint256[]"
        }
      ],
      "name": "getTokenURIs",
      "outputs": [
        {
          "internalType": "string[]",
          "name": "",
          "type": "string[]"
        }
      ],
      "stateMutability": "view",
      "type": "function"
    },
    {
      "inputs": [
        {
          "internalType": "address",
          "name": "token",
          "type": "address"
        },
        {
          "internalType": "address",
          "name": "owner",
          "type": "address"
        },
        {
          "internalType": "uint256",
          "name": "offset",
          "type": "uint256"
        },
        {
          "internalType": "uint256",
          "name": "limit",
          "type": "uint256"
        }
      ],
      "name": "getTokens",
      "outputs": [
        {
          "internalType": "uint256",
          "name": "",
          "type": "uint256"
        },
        {
          "internalType": "uint256[]",
          "name": "",
          "type": "uint256[]"
        }
      ],
      "stateMutability": "view",
      "type": "function"
    },
    {
      "inputs": [
        {
          "internalType": "address",
          "name": "token",
          "type": "address"
        },
        {
          "internalType": "uint256",
          "name": "offset",
          "type": "uint256"
        },
        {
          "internalType": "uint256",
          "name": "limit",
          "type": "uint256"
        }
      ],
      "name": "getTokens",
      "outputs": [
        {
          "internalType": "uint256",
          "name": "",
          "type": "uint256"
        },
        {
          "internalType": "uint256[]",
          "name": "",
          "type": "uint256[]"
        }
      ],
      "stateMutability": "view",
      "type": "function"
    },
    {
      "inputs": [
        {
          "internalType": "address",
          "name": "token",
          "type": "address"
        }
      ],
      "name": "isERC1155",
      "outputs": [
        {
          "internalType": "bool",
          "name": "",
          "type": "bool"
        }
      ],
      "stateMutability": "view",
      "type": "function"
    },
    {
      "inputs": [
        {
          "internalType": "address",
          "name": "token",
          "type": "address"
        }
      ],
      "name": "isERC721",
      "outputs": [
        {
          "internalType": "bool",
          "name": "",
          "type": "bool"
        }
      ],
      "stateMutability": "view",
      "type": "function"
    }
  ],
  "bytecode": "0x608060405234801561001057600080fd5b50613645806100206000396000f3fe608060405234801561001057600080fd5b50600436106100b45760003560e01c8063adbba8de11610071578063adbba8de146101da578063c6c3f3011461020b578063d1c070281461023b578063d4fac45d1461026b578063daa09e541461029b578063ef5bfc37146102cb576100b4565b80630b63fd62146100b95780632469627e146100e9578063282e460a1461011a57806337a9f9c11461014a5780636a385ae91461017a5780639d9f6b01146101aa575b600080fd5b6100d360048036038101906100ce9190612817565b6102fb565b6040516100e09190612e7c565b60405180910390f35b61010360048036038101906100fe919061270c565b610504565b604051610111929190612fb9565b60405180910390f35b610134600480360381019061012f9190612658565b610875565b6040516101419190612e46565b60405180910390f35b610164600480360381019061015f91906127c3565b6108c7565b6040516101719190612e02565b60405180910390f35b610194600480360381019061018f919061276f565b6109fa565b6040516101a19190612e24565b60405180910390f35b6101c460048036038101906101bf91906126bd565b610b2b565b6040516101d19190612f9e565b60405180910390f35b6101f460048036038101906101ef9190612853565b61106a565b604051610202929190612fb9565b60405180910390f35b61022560048036038101906102209190612962565b61151e565b6040516102329190612e02565b60405180910390f35b610255600480360381019061025091906128a2565b6116d5565b6040516102629190612e24565b60405180910390f35b61028560048036038101906102809190612681565b611806565b6040516102929190612f9e565b60405180910390f35b6102b560048036038101906102b09190612658565b61181c565b6040516102c29190612e46565b60405180910390f35b6102e560048036038101906102e091906128f6565b61186e565b6040516102f29190612e24565b60405180910390f35b60606103467f0e89341c000000000000000000000000000000000000000000000000000000008473ffffffffffffffffffffffffffffffffffffffff16611a2390919063ffffffff16565b156103e0578273ffffffffffffffffffffffffffffffffffffffff16630e89341c836040518263ffffffff1660e01b81526004016103849190612f9e565b60006040518083038186803b15801561039c57600080fd5b505afa1580156103b0573d6000803e3d6000fd5b505050506040513d6000823e3d601f19601f820116820180604052508101906103d99190612a38565b90506104fe565b6104297f5b5e139f000000000000000000000000000000000000000000000000000000008473ffffffffffffffffffffffffffffffffffffffff16611a2390919063ffffffff16565b156104c3578273ffffffffffffffffffffffffffffffffffffffff1663c87b56dd836040518263ffffffff1660e01b81526004016104679190612f9e565b60006040518083038186803b15801561047f57600080fd5b505afa158015610493573d6000803e3d6000fd5b505050506040513d6000823e3d601f19601f820116820180604052508101906104bc9190612a38565b90506104fe565b6040517f08c379a00000000000000000000000000000000000000000000000000000000081526004016104f590612f7e565b60405180910390fd5b92915050565b600060606000806105158888611a48565b91509150811561053757805161052c828888611bdb565b93509350505061086c565b6105807f80ac58cd000000000000000000000000000000000000000000000000000000008973ffffffffffffffffffffffffffffffffffffffff16611a2390919063ffffffff16565b156106b4576105ce7f780e9d63000000000000000000000000000000000000000000000000000000008973ffffffffffffffffffffffffffffffffffffffff16611a2390919063ffffffff16565b61060d576040517f08c379a000000000000000000000000000000000000000000000000000000000815260040161060490612ebe565b60405180910390fd5b60008873ffffffffffffffffffffffffffffffffffffffff166370a08231896040518263ffffffff1660e01b81526004016106489190612dbe565b60206040518083038186803b15801561066057600080fd5b505afa158015610674573d6000803e3d6000fd5b505050506040513d601f19601f820116820180604052508101906106989190612a79565b9050806106a88a8a8a8a86611dca565b9450945050505061086c565b6106fd7fd9b67a26000000000000000000000000000000000000000000000000000000008973ffffffffffffffffffffffffffffffffffffffff16611a2390919063ffffffff16565b156108315761074b7f3dfc30a9000000000000000000000000000000000000000000000000000000008973ffffffffffffffffffffffffffffffffffffffff16611a2390919063ffffffff16565b61078a576040517f08c379a000000000000000000000000000000000000000000000000000000000815260040161078190612f3e565b60405180910390fd5b60008873ffffffffffffffffffffffffffffffffffffffff1663b722938a896040518263ffffffff1660e01b81526004016107c59190612dbe565b60206040518083038186803b1580156107dd57600080fd5b505afa1580156107f1573d6000803e3d6000fd5b505050506040513d601f19601f820116820180604052508101906108159190612a79565b9050806108258a8a8a8a86611dca565b9450945050505061086c565b6040517f08c379a000000000000000000000000000000000000000000000000000000000815260040161086390612f5e565b60405180910390fd5b94509492505050565b60006108c07fd9b67a26000000000000000000000000000000000000000000000000000000008373ffffffffffffffffffffffffffffffffffffffff16611a2390919063ffffffff16565b9050919050565b60606000825167ffffffffffffffff81111561090c577f4e487b7100000000000000000000000000000000000000000000000000000000600052604160045260246000fd5b60405190808252806020026020018201604052801561093f57816020015b606081526020019060019003908161092a5790505b50905060005b83518110156109ef576109988585838151811061098b577f4e487b7100000000000000000000000000000000000000000000000000000000600052603260045260246000fd5b60200260200101516102fb565b8282815181106109d1577f4e487b7100000000000000000000000000000000000000000000000000000000600052603260045260246000fd5b602002602001018190525080806109e7906132ae565b915050610945565b508091505092915050565b60606000825167ffffffffffffffff811115610a3f577f4e487b7100000000000000000000000000000000000000000000000000000000600052604160045260246000fd5b604051908082528060200260200182016040528015610a6d5781602001602082028036833780820191505090505b50905060005b8351811015610b2057610ac885858381518110610ab9577f4e487b7100000000000000000000000000000000000000000000000000000000600052603260045260246000fd5b60200260200101516001610b2b565b828281518110610b01577f4e487b7100000000000000000000000000000000000000000000000000000000600052603260045260246000fd5b6020026020010181815250508080610b18906132ae565b915050610a73565b508091505092915050565b60008073ffffffffffffffffffffffffffffffffffffffff168373ffffffffffffffffffffffffffffffffffffffff161415610b80578373ffffffffffffffffffffffffffffffffffffffff16319050611063565b73088800000000000000000000000000000000000273ffffffffffffffffffffffffffffffffffffffff168373ffffffffffffffffffffffffffffffffffffffff161415610c6c5773088800000000000000000000000000000000000273ffffffffffffffffffffffffffffffffffffffff1663b04ef9c2856040518263ffffffff1660e01b8152600401610c159190612dbe565b60206040518083038186803b158015610c2d57600080fd5b505afa158015610c41573d6000803e3d6000fd5b505050506040513d601f19601f82011682018060405250810190610c659190612a79565b9050611063565b81610cd457610c908373ffffffffffffffffffffffffffffffffffffffff16612003565b610ccf576040517f08c379a0000000000000000000000000000000000000000000000000000000008152600401610cc690612e9e565b60405180910390fd5b610d01565b610cf38373ffffffffffffffffffffffffffffffffffffffff16612003565b610d005760009050611063565b5b610d4a7f80ac58cd000000000000000000000000000000000000000000000000000000008473ffffffffffffffffffffffffffffffffffffffff16611a2390919063ffffffff16565b15610e125760006370a0823160e01b85604051602401610d6a9190612dbe565b604051602081830303815290604052907bffffffffffffffffffffffffffffffffffffffffffffffffffffffff19166020820180517bffffffffffffffffffffffffffffffffffffffffffffffffffffffff83818316178352505050509050610e0a8482856040518060400160405280602081526020017f4661696c656420746f2063616c6c20494552433732312e62616c616e63654f66815250612016565b915050611063565b610e5b7fd9b67a26000000000000000000000000000000000000000000000000000000008473ffffffffffffffffffffffffffffffffffffffff16611a2390919063ffffffff16565b15610fc157610ea97f3dfc30a9000000000000000000000000000000000000000000000000000000008473ffffffffffffffffffffffffffffffffffffffff16611a2390919063ffffffff16565b15610f5457600063b722938a60e01b85604051602401610ec99190612dbe565b604051602081830303815290604052907bffffffffffffffffffffffffffffffffffffffffffffffffffffffff19166020820180517bffffffffffffffffffffffffffffffffffffffffffffffffffffffff83818316178352505050509050610f4c8482856040518060600160405280602e81526020016135b2602e9139612016565b915050611063565b600080610f618587611a48565b915091508115610f7657805192505050611063565b83610fb6576040517f08c379a0000000000000000000000000000000000000000000000000000000008152600401610fad90612f3e565b60405180910390fd5b600092505050611063565b60006370a0823160e01b85604051602401610fdc9190612dbe565b604051602081830303815290604052907bffffffffffffffffffffffffffffffffffffffffffffffffffffffff19166020820180517bffffffffffffffffffffffffffffffffffffffffffffffffffffffff8381831617835250505050905061105f8482856040518060600160405280603081526020016135e060309139612016565b9150505b9392505050565b600060606110b77f80ac58cd000000000000000000000000000000000000000000000000000000008673ffffffffffffffffffffffffffffffffffffffff16611a2390919063ffffffff16565b15611149576111057f780e9d63000000000000000000000000000000000000000000000000000000008673ffffffffffffffffffffffffffffffffffffffff16611a2390919063ffffffff16565b611144576040517f08c379a000000000000000000000000000000000000000000000000000000000815260040161113b90612ebe565b60405180910390fd5b611260565b6111927fd9b67a26000000000000000000000000000000000000000000000000000000008673ffffffffffffffffffffffffffffffffffffffff16611a2390919063ffffffff16565b15611224576111e07f3dfc30a9000000000000000000000000000000000000000000000000000000008673ffffffffffffffffffffffffffffffffffffffff16611a2390919063ffffffff16565b61121f576040517f08c379a000000000000000000000000000000000000000000000000000000000815260040161121690612f3e565b60405180910390fd5b61125f565b6040517f08c379a000000000000000000000000000000000000000000000000000000000815260040161125690612f5e565b60405180910390fd5b5b60008573ffffffffffffffffffffffffffffffffffffffff166318160ddd6040518163ffffffff1660e01b815260040160206040518083038186803b1580156112a857600080fd5b505afa1580156112bc573d6000803e3d6000fd5b505050506040513d601f19601f820116820180604052508101906112e09190612a79565b905060008114806112f15750808510155b156113715780600067ffffffffffffffff811115611338577f4e487b7100000000000000000000000000000000000000000000000000000000600052604160045260246000fd5b6040519080825280602002602001820160405280156113665781602001602082028036833780820191505090505b509250925050611516565b60006113918587611382919061314c565b8361210090919063ffffffff16565b9050600086826113a191906131a2565b67ffffffffffffffff8111156113e0577f4e487b7100000000000000000000000000000000000000000000000000000000600052604160045260246000fd5b60405190808252806020026020018201604052801561140e5781602001602082028036833780820191505090505b50905060008790505b8281101561150b578873ffffffffffffffffffffffffffffffffffffffff16634f6ccce7826040518263ffffffff1660e01b81526004016114589190612f9e565b60206040518083038186803b15801561147057600080fd5b505afa158015611484573d6000803e3d6000fd5b505050506040513d601f19601f820116820180604052508101906114a89190612a79565b8289836114b591906131a2565b815181106114ec577f4e487b7100000000000000000000000000000000000000000000000000000000600052603260045260246000fd5b6020026020010181815250508080611503906132ae565b915050611417565b508281945094505050505b935093915050565b60608151835114611564576040517f08c379a000000000000000000000000000000000000000000000000000000000815260040161155b90612ede565b60405180910390fd5b6000835167ffffffffffffffff8111156115a7577f4e487b7100000000000000000000000000000000000000000000000000000000600052604160045260246000fd5b6040519080825280602002602001820160405280156115da57816020015b60608152602001906001900390816115c55790505b50905060005b84518110156116ca57611673858281518110611625577f4e487b7100000000000000000000000000000000000000000000000000000000600052603260045260246000fd5b6020026020010151858381518110611666577f4e487b7100000000000000000000000000000000000000000000000000000000600052603260045260246000fd5b60200260200101516102fb565b8282815181106116ac577f4e487b7100000000000000000000000000000000000000000000000000000000600052603260045260246000fd5b602002602001018190525080806116c2906132ae565b9150506115e0565b508091505092915050565b60606000835167ffffffffffffffff81111561171a577f4e487b7100000000000000000000000000000000000000000000000000000000600052604160045260246000fd5b6040519080825280602002602001820160405280156117485781602001602082028036833780820191505090505b50905060005b84518110156117fb576117a3858281518110611793577f4e487b7100000000000000000000000000000000000000000000000000000000600052603260045260246000fd5b6020026020010151856001610b2b565b8282815181106117dc577f4e487b7100000000000000000000000000000000000000000000000000000000600052603260045260246000fd5b60200260200101818152505080806117f3906132ae565b91505061174e565b508091505092915050565b600061181483836000610b2b565b905092915050565b60006118677f80ac58cd000000000000000000000000000000000000000000000000000000008373ffffffffffffffffffffffffffffffffffffffff16611a2390919063ffffffff16565b9050919050565b606081518351146118b4576040517f08c379a00000000000000000000000000000000000000000000000000000000081526004016118ab90612efe565b60405180910390fd5b6000825167ffffffffffffffff8111156118f7577f4e487b7100000000000000000000000000000000000000000000000000000000600052604160045260246000fd5b6040519080825280602002602001820160405280156119255781602001602082028036833780820191505090505b50905060005b8351811015611a18576119c0858281518110611970577f4e487b7100000000000000000000000000000000000000000000000000000000600052603260045260246000fd5b60200260200101518583815181106119b1577f4e487b7100000000000000000000000000000000000000000000000000000000600052603260045260246000fd5b60200260200101516001610b2b565b8282815181106119f9577f4e487b7100000000000000000000000000000000000000000000000000000000600052603260045260246000fd5b6020026020010181815250508080611a10906132ae565b91505061192b565b508091505092915050565b6000611a2e83612119565b8015611a405750611a3f8383612166565b5b905092915050565b600060606000635a3f267260e01b90506000808673ffffffffffffffffffffffffffffffffffffffff168387604051602401611a849190612dbe565b604051602081830303815290604052907bffffffffffffffffffffffffffffffffffffffffffffffffffffffff19166020820180517bffffffffffffffffffffffffffffffffffffffffffffffffffffffff8381831617835250505050604051611aee9190612da7565b600060405180830381855afa9150503d8060008114611b29576040519150601f19603f3d011682016040523d82523d6000602084013e611b2e565b606091505b50915091508115611b5b57600181806020019051810190611b4f91906129ce565b94509450505050611bd4565b60008067ffffffffffffffff811115611b9d577f4e487b7100000000000000000000000000000000000000000000000000000000600052604160045260246000fd5b604051908082528060200260200182016040528015611bcb5781602001602082028036833780820191505090505b50945094505050505b9250929050565b60606000845190506000811480611bf25750808410155b15611c6f57600067ffffffffffffffff811115611c38577f4e487b7100000000000000000000000000000000000000000000000000000000600052604160045260246000fd5b604051908082528060200260200182016040528015611c665781602001602082028036833780820191505090505b50915050611dc3565b60008385611c7d919061314c565b905081811115611c8b578190505b60008582611c9991906131a2565b67ffffffffffffffff811115611cd8577f4e487b7100000000000000000000000000000000000000000000000000000000600052604160045260246000fd5b604051908082528060200260200182016040528015611d065781602001602082028036833780820191505090505b50905060008690505b82811015611dbb57878181518110611d50577f4e487b7100000000000000000000000000000000000000000000000000000000600052603260045260246000fd5b6020026020010151828883611d6591906131a2565b81518110611d9c577f4e487b7100000000000000000000000000000000000000000000000000000000600052603260045260246000fd5b6020026020010181815250508080611db3906132ae565b915050611d0f565b508093505050505b9392505050565b60606000821480611ddb5750818410155b15611e5757600067ffffffffffffffff811115611e21577f4e487b7100000000000000000000000000000000000000000000000000000000600052604160045260246000fd5b604051908082528060200260200182016040528015611e4f5781602001602082028036833780820191505090505b509050611ffa565b6000611e778486611e68919061314c565b8461210090919063ffffffff16565b905060008582611e8791906131a2565b67ffffffffffffffff811115611ec6577f4e487b7100000000000000000000000000000000000000000000000000000000600052604160045260246000fd5b604051908082528060200260200182016040528015611ef45781602001602082028036833780820191505090505b50905060008690505b82811015611ff3578873ffffffffffffffffffffffffffffffffffffffff16632f745c5989836040518363ffffffff1660e01b8152600401611f40929190612dd9565b60206040518083038186803b158015611f5857600080fd5b505afa158015611f6c573d6000803e3d6000fd5b505050506040513d601f19601f82011682018060405250810190611f909190612a79565b828883611f9d91906131a2565b81518110611fd4577f4e487b7100000000000000000000000000000000000000000000000000000000600052603260045260246000fd5b6020026020010181815250508080611feb906132ae565b915050611efd565b5080925050505b95945050505050565b600080823b905060008111915050919050565b6000826120625761204884838773ffffffffffffffffffffffffffffffffffffffff166122919092919063ffffffff16565b80602001905181019061205b9190612a79565b90506120f8565b6000808673ffffffffffffffffffffffffffffffffffffffff168660405161208a9190612da7565b600060405180830381855afa9150503d80600081146120c5576040519150601f19603f3d011682016040523d82523d6000602084013e6120ca565b606091505b5091509150816120df576000925050506120f8565b808060200190518101906120f39190612a79565b925050505b949350505050565b600081831061210f5781612111565b825b905092915050565b6000612145827f01ffc9a700000000000000000000000000000000000000000000000000000000612166565b801561215f575061215d8263ffffffff60e01b612166565b155b9050919050565b6000806301ffc9a760e01b836040516024016121829190612e61565b604051602081830303815290604052907bffffffffffffffffffffffffffffffffffffffffffffffffffffffff19166020820180517bffffffffffffffffffffffffffffffffffffffffffffffffffffffff838183161783525050505090506000808573ffffffffffffffffffffffffffffffffffffffff166175308460405161220c9190612da7565b6000604051808303818686fa925050503d8060008114612248576040519150601f19603f3d011682016040523d82523d6000602084013e61224d565b606091505b5091509150602081511015612268576000935050505061228b565b8180156122855750808060200190518101906122849190612a0f565b5b93505050505b92915050565b606061229c84612003565b6122db576040517f08c379a00000000000000000000000000000000000000000000000000000000081526004016122d290612f1e565b60405180910390fd5b6000808573ffffffffffffffffffffffffffffffffffffffff16856040516123039190612da7565b600060405180830381855afa9150503d806000811461233e576040519150601f19603f3d011682016040523d82523d6000602084013e612343565b606091505b509150915061235382828661235e565b925050509392505050565b6060831561236e578290506123be565b6000835111156123815782518084602001fd5b816040517f08c379a00000000000000000000000000000000000000000000000000000000081526004016123b59190612e7c565b60405180910390fd5b9392505050565b60006123d86123d38461300e565b612fe9565b905080838252602082019050828560208602820111156123f757600080fd5b60005b85811015612427578161240d8882612547565b8452602084019350602083019250506001810190506123fa565b5050509392505050565b600061244461243f8461303a565b612fe9565b9050808382526020820190508285602086028201111561246357600080fd5b60005b858110156124935781612479888261262e565b845260208401935060208301925050600181019050612466565b5050509392505050565b60006124b06124ab8461303a565b612fe9565b905080838252602082019050828560208602820111156124cf57600080fd5b60005b858110156124ff57816124e58882612643565b8452602084019350602083019250506001810190506124d2565b5050509392505050565b600061251c61251784613066565b612fe9565b90508281526020810184848401111561253457600080fd5b61253f84828561324a565b509392505050565b6000813590506125568161356c565b92915050565b600082601f83011261256d57600080fd5b813561257d8482602086016123c5565b91505092915050565b600082601f83011261259757600080fd5b81356125a7848260208601612431565b91505092915050565b600082601f8301126125c157600080fd5b81516125d184826020860161249d565b91505092915050565b6000813590506125e981613583565b92915050565b6000815190506125fe81613583565b92915050565b600082601f83011261261557600080fd5b8151612625848260208601612509565b91505092915050565b60008135905061263d8161359a565b92915050565b6000815190506126528161359a565b92915050565b60006020828403121561266a57600080fd5b600061267884828501612547565b91505092915050565b6000806040838503121561269457600080fd5b60006126a285828601612547565b92505060206126b385828601612547565b9150509250929050565b6000806000606084860312156126d257600080fd5b60006126e086828701612547565b93505060206126f186828701612547565b9250506040612702868287016125da565b9150509250925092565b6000806000806080858703121561272257600080fd5b600061273087828801612547565b945050602061274187828801612547565b93505060406127528782880161262e565b92505060606127638782880161262e565b91505092959194509250565b6000806040838503121561278257600080fd5b600061279085828601612547565b925050602083013567ffffffffffffffff8111156127ad57600080fd5b6127b98582860161255c565b9150509250929050565b600080604083850312156127d657600080fd5b60006127e485828601612547565b925050602083013567ffffffffffffffff81111561280157600080fd5b61280d85828601612586565b9150509250929050565b6000806040838503121561282a57600080fd5b600061283885828601612547565b92505060206128498582860161262e565b9150509250929050565b60008060006060848603121561286857600080fd5b600061287686828701612547565b93505060206128878682870161262e565b92505060406128988682870161262e565b9150509250925092565b600080604083850312156128b557600080fd5b600083013567ffffffffffffffff8111156128cf57600080fd5b6128db8582860161255c565b92505060206128ec85828601612547565b9150509250929050565b6000806040838503121561290957600080fd5b600083013567ffffffffffffffff81111561292357600080fd5b61292f8582860161255c565b925050602083013567ffffffffffffffff81111561294c57600080fd5b6129588582860161255c565b9150509250929050565b6000806040838503121561297557600080fd5b600083013567ffffffffffffffff81111561298f57600080fd5b61299b8582860161255c565b925050602083013567ffffffffffffffff8111156129b857600080fd5b6129c485828601612586565b9150509250929050565b6000602082840312156129e057600080fd5b600082015167ffffffffffffffff8111156129fa57600080fd5b612a06848285016125b0565b91505092915050565b600060208284031215612a2157600080fd5b6000612a2f848285016125ef565b91505092915050565b600060208284031215612a4a57600080fd5b600082015167ffffffffffffffff811115612a6457600080fd5b612a7084828501612604565b91505092915050565b600060208284031215612a8b57600080fd5b6000612a9984828501612643565b91505092915050565b6000612aae8383612bff565b905092915050565b6000612ac28383612d89565b60208301905092915050565b612ad7816131d6565b82525050565b6000612ae8826130b7565b612af281856130fd565b935083602082028501612b0485613097565b8060005b85811015612b405784840389528151612b218582612aa2565b9450612b2c836130e3565b925060208a01995050600181019050612b08565b50829750879550505050505092915050565b6000612b5d826130c2565b612b67818561310e565b9350612b72836130a7565b8060005b83811015612ba3578151612b8a8882612ab6565b9750612b95836130f0565b925050600181019050612b76565b5085935050505092915050565b612bb9816131e8565b82525050565b612bc8816131f4565b82525050565b6000612bd9826130cd565b612be3818561311f565b9350612bf381856020860161324a565b80840191505092915050565b6000612c0a826130d8565b612c14818561312a565b9350612c2481856020860161324a565b612c2d81613355565b840191505092915050565b6000612c43826130d8565b612c4d818561313b565b9350612c5d81856020860161324a565b612c6681613355565b840191505092915050565b6000612c7e60198361313b565b9150612c8982613366565b602082019050919050565b6000612ca1601a8361313b565b9150612cac8261338f565b602082019050919050565b6000612cc460238361313b565b9150612ccf826133b8565b604082019050919050565b6000612ce760238361313b565b9150612cf282613407565b604082019050919050565b6000612d0a60248361313b565b9150612d1582613456565b604082019050919050565b6000612d2d601b8361313b565b9150612d38826134a5565b602082019050919050565b6000612d5060308361313b565b9150612d5b826134ce565b604082019050919050565b6000612d73602f8361313b565b9150612d7e8261351d565b604082019050919050565b612d9281613240565b82525050565b612da181613240565b82525050565b6000612db38284612bce565b915081905092915050565b6000602082019050612dd36000830184612ace565b92915050565b6000604082019050612dee6000830185612ace565b612dfb6020830184612d98565b9392505050565b60006020820190508181036000830152612e1c8184612add565b905092915050565b60006020820190508181036000830152612e3e8184612b52565b905092915050565b6000602082019050612e5b6000830184612bb0565b92915050565b6000602082019050612e766000830184612bbf565b92915050565b60006020820190508181036000830152612e968184612c38565b905092915050565b60006020820190508181036000830152612eb781612c71565b9050919050565b60006020820190508181036000830152612ed781612c94565b9050919050565b60006020820190508181036000830152612ef781612cb7565b9050919050565b60006020820190508181036000830152612f1781612cda565b9050919050565b60006020820190508181036000830152612f3781612cfd565b9050919050565b60006020820190508181036000830152612f5781612d20565b9050919050565b60006020820190508181036000830152612f7781612d43565b9050919050565b60006020820190508181036000830152612f9781612d66565b9050919050565b6000602082019050612fb36000830184612d98565b92915050565b6000604082019050612fce6000830185612d98565b8181036020830152612fe08184612b52565b90509392505050565b6000612ff3613004565b9050612fff828261327d565b919050565b6000604051905090565b600067ffffffffffffffff82111561302957613028613326565b5b602082029050602081019050919050565b600067ffffffffffffffff82111561305557613054613326565b5b602082029050602081019050919050565b600067ffffffffffffffff82111561308157613080613326565b5b61308a82613355565b9050602081019050919050565b6000819050602082019050919050565b6000819050602082019050919050565b600081519050919050565b600081519050919050565b600081519050919050565b600081519050919050565b6000602082019050919050565b6000602082019050919050565b600082825260208201905092915050565b600082825260208201905092915050565b600081905092915050565b600082825260208201905092915050565b600082825260208201905092915050565b600061315782613240565b915061316283613240565b9250827fffffffffffffffffffffffffffffffffffffffffffffffffffffffffffffffff03821115613197576131966132f7565b5b828201905092915050565b60006131ad82613240565b91506131b883613240565b9250828210156131cb576131ca6132f7565b5b828203905092915050565b60006131e182613220565b9050919050565b60008115159050919050565b60007fffffffff0000000000000000000000000000000000000000000000000000000082169050919050565b600073ffffffffffffffffffffffffffffffffffffffff82169050919050565b6000819050919050565b60005b8381101561326857808201518184015260208101905061324d565b83811115613277576000848401525b50505050565b61328682613355565b810181811067ffffffffffffffff821117156132a5576132a4613326565b5b80604052505050565b60006132b982613240565b91507fffffffffffffffffffffffffffffffffffffffffffffffffffffffffffffffff8214156132ec576132eb6132f7565b5b600182019050919050565b7f4e487b7100000000000000000000000000000000000000000000000000000000600052601160045260246000fd5b7f4e487b7100000000000000000000000000000000000000000000000000000000600052604160045260246000fd5b6000601f19601f8301169050919050565b7f436f6e7472616374206164647265737320726571756972656400000000000000600082015250565b7f49455243373231456e756d657261626c65207265717569726564000000000000600082015250565b7f746f6b656e7320616e6420746f6b656e496473206c656e677468206d69736d6160008201527f7463680000000000000000000000000000000000000000000000000000000000602082015250565b7f6163636f756e747320616e6420746f6b656e73206c656e677468206d69736d6160008201527f7463680000000000000000000000000000000000000000000000000000000000602082015250565b7f416464726573733a207374617469632063616c6c20746f206e6f6e2d636f6e7460008201527f7261637400000000000000000000000000000000000000000000000000000000602082015250565b7f4943524331313535456e756d657261626c652072657175697265640000000000600082015250565b7f49455243373231456e756d657261626c65206f72204943524331313535456e7560008201527f6d657261626c6520726571756972656400000000000000000000000000000000602082015250565b7f49455243313135354d65746164617461555249206f7220494552433732314d6560008201527f7461646174612072657175697265640000000000000000000000000000000000602082015250565b613575816131d6565b811461358057600080fd5b50565b61358c816131e8565b811461359757600080fd5b50565b6135a381613240565b81146135ae57600080fd5b5056fe4661696c656420746f2063616c6c204943524331313535456e756d657261626c652e746f6b656e436f756e744f66494552433230206f722049455243373231206f72204943524331313535456e756d657261626c65207265717569726564a2646970667358221220739eeb586e896d03b1f9605cbcdf4444533226fea30bec20746041f56fe97f9664736f6c63430008030033",
  "linkReferences": {},
  "deployedLinkReferences": {}
}