{
  "contractName": "AdminControl",
  "abi": [
    {
      "inputs": [
        {
          "internalType": "address",
          "name": "contractAddr",
          "type": "address"
        }
      ],
      "name": "getAdmin",
      "outputs": [
        {
          "internalType": "address",
          "name": "",
          "type": "address"
        }
      ],
      "stateMutability": "view",
      "type": "function"
    },
    {
      "inputs": [
        {
          "internalType": "address",
          "name": "contractAddr",
          "type": "address"
        },
        {
          "internalType": "address",
          "name": "newAdmin",
          "type": "address"
        }
      ],
      "name": "setAdmin",
      "outputs": [],
      "stateMutability": "nonpayable",
      "type": "function"
    },
    {
      "inputs": [
        {
          "internalType": "address",
          "name": "contractAddr",
          "type": "address"
        }
      ],
      "name": "destroy",
      "outputs": [],
      "stateMutability": "nonpayable",
      "type": "function"
    }
  ],
  "bytecode": "0x608060405234801561001057600080fd5b5061019f806100206000396000f3fe608060405234801561001057600080fd5b50600436106100405760003560e01c8062f55d9d1461004557806364efb22b14610089578063c55b6bb7146100f7575b600080fd5b6100876004803603602081101561005b57600080fd5b81019080803573ffffffffffffffffffffffffffffffffffffffff16906020019092919050505061015b565b005b6100cb6004803603602081101561009f57600080fd5b81019080803573ffffffffffffffffffffffffffffffffffffffff16906020019092919050505061015e565b604051808273ffffffffffffffffffffffffffffffffffffffff16815260200191505060405180910390f35b6101596004803603604081101561010d57600080fd5b81019080803573ffffffffffffffffffffffffffffffffffffffff169060200190929190803573ffffffffffffffffffffffffffffffffffffffff169060200190929190505050610165565b005b50565b6000919050565b505056fea2646970667358221220751f5d70b0f8fdf26832ff8c54cc32ebb1378a582cde6419ec184742554ffa3864736f6c63430007040033",
  "immutableReferences": {},
  "source": "pragma solidity >=0.4.15;\n\ncontract AdminControl {\n    /*** Query Functions ***/\n    /**\n     * @dev get admin of specific contract\n     * @param contractAddr The address of specific contract\n     */\n    function getAdmin(address contractAddr) public view returns (address) {}\n    \n    /**\n     * @dev Contract admin set the administrator of contract `contractAddr` to `newAdmin`.\n     * @param contractAddr The address of the contract\n     * @param newAdmin The new admin address\n     */\n    function setAdmin(address contractAddr, address newAdmin) public {}\n\n   /**\n     * @dev Contract admin destroy contract `contractAddr`.\n     * @param contractAddr The contract to be destroied\n     */\n    function destroy(address contractAddr) public {}\n}\n",
  "sourcePath": "/Users/wangzhenting/IdeaProjects/conflux-scan-statistics/contracts/AdminControl.sol",
  "compiler": {
    "name": "solc",
    "version": "0.7.4+commit.3f05b770.Emscripten.clang"
  },
  "schemaVersion": "3.4.1",
  "updatedAt": "2021-09-07T05:20:40.697Z",
  "devdoc": {
    "kind": "dev",
    "methods": {
      "destroy(address)": {
        "details": "Contract admin destroy contract `contractAddr`.",
        "params": {
          "contractAddr": "The contract to be destroied"
        }
      },
      "getAdmin(address)": {
        "details": "get admin of specific contract",
        "params": {
          "contractAddr": "The address of specific contract"
        }
      },
      "setAdmin(address,address)": {
        "details": "Contract admin set the administrator of contract `contractAddr` to `newAdmin`.",
        "params": {
          "contractAddr": "The address of the contract",
          "newAdmin": "The new admin address"
        }
      }
    },
    "version": 1
  },
  "userdoc": {
    "kind": "user",
    "methods": {},
    "version": 1
  }
}