{
  "contractName": "ConfluxContext",
  "abi": [
    {
      "inputs": [],
      "name": "epochNumber",
      "outputs": [
        {
          "internalType": "uint256",
          "name": "",
          "type": "uint256"
        }
      ],
      "stateMutability": "view",
      "type": "function"
    },
    {
      "inputs": [],
      "name": "posHeight",
      "outputs": [
        {
          "internalType": "uint256",
          "name": "",
          "type": "uint256"
        }
      ],
      "stateMutability": "view",
      "type": "function"
    },
    {
      "inputs": [],
      "name": "finalizedEpochNumber",
      "outputs": [
        {
          "internalType": "uint256",
          "name": "",
          "type": "uint256"
        }
      ],
      "stateMutability": "view",
      "type": "function"
    }
  ],
  "bytecode": "0x608060405234801561001057600080fd5b50610104806100206000396000f3fe6080604052348015600f57600080fd5b5060043610603c5760003560e01c8063227907b414604157806323adad1014605b578063f4145a83146075575b600080fd5b6047608f565b6040516052919060ab565b60405180910390f35b60616094565b604051606c919060ab565b60405180910390f35b607b6099565b6040516086919060ab565b60405180910390f35b600090565b600090565b600090565b60a58160c4565b82525050565b600060208201905060be6000830184609e565b92915050565b600081905091905056fea2646970667358221220a3b3c7f12cdbc29c9eab2a9357fb4b1356e5f5e8594f4ca7bd43bbc9971e510c64736f6c63430008000033",
  "immutableReferences": {},
  "source": "pragma solidity >=0.4.15;\n\ncontract ConfluxContext {\n    /*** Query Functions ***/\n    /**\n     * @dev get the current epoch number\n     * @return the current epoch number\n     */\n    function epochNumber() public view returns (uint256) {}\n    /**\n     * @dev get the height of the referred PoS block in the last epoch\n`    * @return the current PoS block height\n     */\n    function posHeight() public view returns (uint256) {}\n    /**\n     * @dev get the epoch number of the finalized pivot block.\n     * @return the finalized epoch number\n     */\n    function finalizedEpochNumber() public view returns (uint256) {}\n}",
  "sourcePath": "/Users/wangzhenting/IdeaProjects/conflux-scan-statistics/contracts/ConfluxContext.sol",
  "compiler": {
    "name": "solc",
    "version": "0.8.0+commit.c7dfd78e.Emscripten.clang"
  },
  "schemaVersion": "3.4.3",
  "updatedAt": "2021-12-10T09:37:18.149Z",
  "devdoc": {
    "kind": "dev",
    "methods": {
      "epochNumber()": {
        "details": "get the current epoch number",
        "returns": {
          "_0": "the current epoch number"
        }
      },
      "finalizedEpochNumber()": {
        "details": "get the epoch number of the finalized pivot block.",
        "returns": {
          "_0": "the finalized epoch number"
        }
      },
      "posHeight()": {
        "details": "get the height of the referred PoS block in the last epoch",
        "returns": {
          "_0": "the current PoS block height"
        }
      }
    },
    "version": 1
  },
  "userdoc": {
    "kind": "user",
    "methods": {},
    "version": 1
  }
}