{
  "contractName": "Context",
  "abi": [
    {
      "inputs": [],
      "name": "epochNumber",
      "outputs": [
        {
          "internalType": "uint64",
          "name": "",
          "type": "uint64"
        }
      ],
      "stateMutability": "view",
      "type": "function"
    }
  ],
  "bytecode": "0x6080604052348015600f57600080fd5b50608e8061001e6000396000f3fe6080604052348015600f57600080fd5b506004361060285760003560e01c8063f4145a8314602d575b600080fd5b60336053565b604051808267ffffffffffffffff16815260200191505060405180910390f35b60009056fea2646970667358221220fad5ea1acbde191bf387648dc7d6a5977fd011b0076d2531644dd77917fe0e5364736f6c63430007040033",
  "immutableReferences": {},
  "source": "pragma solidity >=0.4.15;\n\ncontract Context {\n    /*** Query Functions ***/\n    /**\n     * @dev get the current epoch number\n     */\n    function epochNumber() public view returns (uint64) {}\n}\n",
  "sourcePath": "/Users/wangzhenting/IdeaProjects/conflux-scan-statistics/contracts/Context.sol",
  "compiler": {
    "name": "solc",
    "version": "0.7.4+commit.3f05b770.Emscripten.clang"
  },
  "schemaVersion": "3.4.1",
  "updatedAt": "2021-10-25T07:52:46.971Z",
  "devdoc": {
    "kind": "dev",
    "methods": {
      "epochNumber()": {
        "details": "get the current epoch number"
      }
    },
    "version": 1
  },
  "userdoc": {
    "kind": "user",
    "methods": {},
    "version": 1
  }
}