{
  "contractName": "ReentrancyConfig",
  "abi": [
    {
      "inputs": [
        {
          "internalType": "bool",
          "name": "allowance",
          "type": "bool"
        }
      ],
      "name": "allowReentrancy",
      "outputs": [],
      "stateMutability": "nonpayable",
      "type": "function"
    },
    {
      "inputs": [
        {
          "internalType": "address",
          "name": "contractAddr",
          "type": "address"
        },
        {
          "internalType": "bool",
          "name": "allowance",
          "type": "bool"
        }
      ],
      "name": "allowReentrancyByAdmin",
      "outputs": [],
      "stateMutability": "nonpayable",
      "type": "function"
    },
    {
      "inputs": [
        {
          "internalType": "address",
          "name": "contractAddr",
          "type": "address"
        }
      ],
      "name": "isReentrancyAllowed",
      "outputs": [
        {
          "internalType": "bool",
          "name": "",
          "type": "bool"
        }
      ],
      "stateMutability": "view",
      "type": "function"
    }
  ],
  "bytecode": "0x608060405234801561001057600080fd5b50610164806100206000396000f3fe608060405234801561001057600080fd5b50600436106100415760003560e01c8063838d377c146100465780638fef6c3914610076578063e2adea25146100c6575b600080fd5b6100746004803603602081101561005c57600080fd5b81019080803515159060200190929190505050610120565b005b6100c46004803603604081101561008c57600080fd5b81019080803573ffffffffffffffffffffffffffffffffffffffff169060200190929190803515159060200190929190505050610123565b005b610108600480360360208110156100dc57600080fd5b81019080803573ffffffffffffffffffffffffffffffffffffffff169060200190929190505050610127565b60405180821515815260200191505060405180910390f35b50565b5050565b600091905056fea2646970667358221220a26abfd46526fa0c9d41e0964e365b3166bc74bfa8be8a24897f0eb3a48ccf4f64736f6c63430007040033",
  "immutableReferences": {},
  "source": "pragma solidity >=0.4.15;\n\ncontract ReentrancyConfig {\n\n    /**\n     * @dev set contract reentrancy config from contract\n     * @param allowance True or false to configure the config\n     */\n    function allowReentrancy(bool allowance) public {}\n\n    /**\n     * @dev set contract reentrancy through contract admin\n     * @param allowance True or false to configure the config\n     */\n    function allowReentrancyByAdmin(address contractAddr, bool allowance) public {}\n\n    /**\n     * @dev check whether contract is allowed reentrancy\n     * @param contractAddr The contract address to check\n     * @return boolean\n     */\n    function isReentrancyAllowed(address contractAddr) public view returns (bool){}\n}",
  "sourcePath": "/Users/wangzhenting/IdeaProjects/conflux-scan-statistics/contracts/ReentrancyConfig.sol",
  "compiler": {
    "name": "solc",
    "version": "0.7.4+commit.3f05b770.Emscripten.clang"
  },
  "schemaVersion": "3.4.1",
  "updatedAt": "2021-10-25T08:26:28.522Z",
  "devdoc": {
    "kind": "dev",
    "methods": {
      "allowReentrancy(bool)": {
        "details": "set contract reentrancy config from contract",
        "params": {
          "allowance": "True or false to configure the config"
        }
      },
      "allowReentrancyByAdmin(address,bool)": {
        "details": "set contract reentrancy through contract admin",
        "params": {
          "allowance": "True or false to configure the config"
        }
      },
      "isReentrancyAllowed(address)": {
        "details": "check whether contract is allowed reentrancy",
        "params": {
          "contractAddr": "The contract address to check"
        },
        "returns": {
          "_0": "boolean"
        }
      }
    },
    "version": 1
  },
  "userdoc": {
    "kind": "user",
    "methods": {},
    "version": 1
  }
}